:100000000C945C000C9479000C9479000C94D00151
:100010000C9479000C9479000C9479000C9479007C
:100020000C9479000C9479000C9479000C9479006C
:100030000C9479000C9479000C9479000C9479005C
:100040000C948A010C9479000C9479000C9479003A
:100050000C9479000C9479000C9479000C9479003C
:100060000C9479000C947900000000002400270013
:100070002A0000000000250028002B0004040404CE
:100080000404040402020202020203030303030342
:10009000010204081020408001020408102001021F
:1000A00004081020000000080002010000030407FB
:1000B000000000000000000011241FBECFEFD8E0B8
:1000C000DEBFCDBF11E0A0E0B1E0E0EAF5E002C0A4
:1000D00005900D92A830B107D9F721E0A8E0B1E072
:1000E00001C01D92A431B207E1F70E94E2010C9415
:1000F000CE020C94000090E0FC01EC55FF4F2491DF
:10010000FC01E057FF4F3491FC01E458FF4FE491AC
:10011000EE23C9F0222339F0233001F1A8F4213075
:1001200019F1223029F1F0E0EE0FFF1FEE58FF4FDA
:10013000A591B4918FB7F894EC91611126C03095D8
:100140003E233C938FBF08952730A9F02830C9F093
:10015000243049F7809180008F7D03C0809180001A
:100160008F7780938000DFCF84B58F7784BDDBCF1E
:1001700084B58F7DFBCF8091B0008F778093B000E6
:10018000D2CF8091B0008F7DF9CF3E2BDACFCF93C5
:10019000DF9390E0FC01E057FF4F249184589F4F7C
:1001A000FC0184918823D1F090E0880F991FFC0115
:1001B000E859FF4FA591B491FC01EE58FF4FC5914E
:1001C000D49161110EC09FB7F8948C91E22FE09505
:1001D0008E238C932881E223E8839FBFDF91CF9108
:1001E00008958FB7F894EC91E22BEC938FBFF6CF84
:1001F0009FB7F89440910D0150910E0160910F014D
:100200007091100186B5A89B06C08F3F21F04F5F0B
:100210005F4F6F4F7F4F9FBF2227342F452F562FA1
:10022000280F311D411D511DA3E0B0E00E94B40212
:1002300008958F929F92AF92BF92CF92DF92EF92EA
:10024000FF920E94F8004B015C0182E3C82ED12C82
:10025000E12CF12C0E94F800681979098A099B09A0
:10026000683E734081059105A8F321E0C21AD108C8
:10027000E108F10888EE880E83E0981EA11CB11CED
:10028000C114D104E104F10429F7FF90EF90DF904D
:10029000CF90BF90AF909F908F900895CF93C82F2D
:1002A0008130B1F178F1883011F1893049F190E075
:1002B00080E00E949E02C81729F06C2F90E080E039
:1002C0000E94A6020E94190160E08AE00E947B0061
:1002D00061E08AE00E94C7000E94190161E08AE0A3
:1002E0000E947B0060E08AE0CF910C94C70060E040
:1002F00088E00E947B0060E089E00E947B00D7CF0D
:1003000061E0F6CF60E088E00E947B0061E0F4CF1E
:1003100061E0F9CF1F920F920FB60F9211242F9325
:100320003F938F939F93AF93BF93809109019091D7
:100330000A01A0910B01B0910C013091080126E651
:10034000230F2D3728F029EE230F0196A11DB11D93
:10035000209308018093090190930A01A0930B0157
:10036000B0930C0180910D0190910E01A0910F01AD
:10037000B09110010196A11DB11D80930D019093C4
:100380000E01A0930F01B0931001BF91AF919F9107
:100390008F913F912F910F900FBE0F901F90189546
:1003A0001F920F920FB60F9211248F9383B185FB8A
:1003B000882780F9809313018F910F900FBE0F90C3
:1003C0001F901895789484B5826084BD84B581604F
:1003D00084BD85B5826085BD85B5816085BD809110
:1003E0006E00816080936E00109281008091810088
:1003F0008260809381008091810081608093810080
:10040000809180008160809380008091B100846041
:100410008093B1008091B00081608093B0008091A2
:100420007A00846080937A0080917A008260809361
:100430007A0080917A00816080937A0080917A00BE
:10044000806880937A001092C10061E088E00E9489
:10045000C70061E089E00E94C70061E088E00E9477
:100460007B0061E089E00E947B0060E08DE00E94FB
:10047000C70060E08AE00E94C70061E08EE00E9451
:10048000C7001AB890E080E00E949E0290E08A3097
:1004900091056CF0D0E0C0E060E0CE010E94A602C1
:1004A0002196C11584E0D807B9F788E090E00E9452
:1004B0004E0180916B00806280936B00D89A80918E
:1004C0006800816080936800C0E0D0E001E010E047
:1004D000809113018823F9F029B1109213018091C2
:1004E000110190911201FC01E050FF4F3081231364
:1004F0001EC001969093120180931101089759F440
:10050000809113018823E1F399B180ED890F8A303E
:1005100038F40E944E012097D9F20E940000D8CFF3
:10052000943439F41093120100931101F4CF243460
:10053000C9F31092120110921101EDCFF999FECF7B
:1005400092BD81BDF89A992780B50895262FF99913
:10055000FECF1FBA92BD81BD20BD0FB6F894FA9AA6
:10056000F99A0FBE019608950E94BF02A59F900DB3
:10057000B49F900DA49F800D911D11240895A29FFA
:10058000B001B39FC001A39F700D811D1124911D67
:10059000B29F700D811D1124911D0895F894FFCF15
:0805A00044495652444E5240FA
:00000001FF
