:1000000041C05BC05AC0A1C158C057C056C055C0FE
:1000100054C053C052C051C050C04FC04EC04DC05C
:100020004EC14BC04AC049C048C047C046C045C089
:1000300044C043C000000000240027002A00000044
:100040000000250028002B00040404040404040418
:100050000202020202020303030303030102040873
:100060001020408001020408102001020408102022
:100070000000000800020100000304070000000067
:100080000000000011241FBECFEFD4E0DEBFCDBFC3
:1000900011E0A0E0B1E0EAE2F5E002C005900D92C7
:1000A000A830B107D9F721E0A8E0B1E001C01D9266
:1000B000A431B207E1F75BD136C2A2CF90E0FC01D8
:1000C000E059FF4F2491FC01E45AFF4F3491FC01A9
:1000D000E85BFF4FE491EE23C9F0222339F023308F
:1000E00001F1A8F4213019F1223029F1F0E0EE0FEE
:1000F000FF1FE25CFF4FA591B4918FB7F894EC918C
:10010000611126C030953E233C938FBF0895273060
:10011000A9F02830C9F0243049F7809180008F7D04
:1001200003C0809180008F7780938000DFCF84B5FB
:100130008F7784BDDBCF84B58F7DFBCF8091B000FE
:100140008F778093B000D2CF8091B0008F7DF9CFB0
:100150003E2BDACFCF93DF9390E0FC01E45AFF4FC0
:100160002491885B9F4FFC0184918823D1F090E01B
:10017000880F991FFC01EC5CFF4FA591B491FC0125
:10018000E25CFF4FC591D49161110EC09FB7F89406
:100190008C91E22FE0958E238C932881E223E883D3
:1001A0009FBFDF91CF9108958FB7F894EC91E22B28
:1001B000EC938FBFF6CF9FB7F89440910D0150910B
:1001C0000E0160910F017091100186B5A89B06C0C9
:1001D0008F3F21F04F5F5F4F6F4F7F4F9FBF2227B1
:1001E000342F452F562F280F311D411D511DA3E0DF
:1001F000B0E083D108958F929F92AF92BF92CF9239
:10020000DF92EF92FF92D7DF4B015C0182E3C82EB1
:10021000D12CE12CF12CCFDF681979098A099B09CF
:10022000683E734081059105B0F321E0C21AD10800
:10023000E108F10888EE880E83E0981EA11CB11C2D
:10024000C114D104E104F10431F7FF90EF90DF9085
:10025000CF90BF90AF909F908F900895CF93C82F6D
:10026000813059F128F18830D1F08930F9F090E0EF
:1002700080E02DD1C81721F06C2F90E080E02FD1C5
:10028000BADF60E08AE01ADF61E08AE063DFB3DFB3
:1002900061E08AE013DF60E08AE0CF915BCF60E04D
:1002A00088E00CDF60E089E009DFE1CF61E0F8CFB2
:1002B00060E088E003DF61E0F6CF61E0FACF1F92F3
:1002C0000F920FB60F9211242F933F938F939F930A
:1002D000AF93BF938091090190910A01A0910B0106
:1002E000B0910C013091080126E6230F2D3728F03C
:1002F00029EE230F0196A11DB11D209308018093C3
:10030000090190930A01A0930B01B0930C01809115
:100310000D0190910E01A0910F01B0911001019675
:10032000A11DB11D80930D0190930E01A0930F01AB
:10033000B0931001BF91AF919F918F913F912F91F9
:100340000F900FBE0F901F9018951F920F920FB62F
:100350000F9211248F9383B185FB882780F98093B6
:1003600013018F910F900FBE0F901F9018957894E6
:1003700084B5826084BD84B5816084BD85B58260AA
:1003800085BD85B5816085BD80916E00816080935B
:100390006E001092810080918100826080938100C4
:1003A00080918100816080938100809180008160D4
:1003B000809380008091B10084608093B10080912F
:1003C000B00081608093B00080917A008460809357
:1003D0007A0080917A00826080937A0080917A001E
:1003E000816080937A0080917A00806880937A009F
:1003F0001092C10061E088E0ADDE61E089E0AADE34
:1004000061E088E05BDE61E089E058DE60E08DE07D
:10041000A1DE60E08AE09EDE61E08EE09BDE1AB83D
:1004200090E080E054D090E08A30910564F0D0E014
:10043000C0E060E0CE0153D02196C11582E0D8071C
:10044000C1F788E090E00ADF80916B0080628093C2
:100450006B00D89A80916800816080936800C0E04A
:10046000D0E001E010E0809113018823F1F029B180
:10047000109213018091110190911201FC01E05042
:10048000FF4F308123131CC001969093120180937B
:100490001101089751F4809113018823E1F399B178
:1004A00080ED890F8A3028F4D9DE2097E1F2A8DDAB
:1004B000DACF943439F41093120100931101F5CF7F
:1004C0002434C9F31092120110921101EECFF99960
:1004D000FECF92BD81BDF89A992780B50895262F49
:1004E000F999FECF1FBA92BD81BD20BD0FB6F89419
:1004F000FA9AF99A0FBE0196089509D0A59F900D1A
:10050000B49F900DA49F800D911D11240895A29F6A
:10051000B001B39FC001A39F01D0B29F700D811D98
:0A0520001124911D0895F894FFCFF7
:08052A0044495652444E524070
:00000001FF
